:100000000C947F010C94B0010C94B0010C94B001DD
:100010000C94B0010C94B0010C94B0010C94B0019C
:100020000C94B0010C94B0010C94B0010C94B0018C
:100030000C94B0010C94B0010C94B0010C94B0017C
:100040000C94B0010C94B0010C94B0010C94B0016C
:100050000C94B0010C94B0010C94B0010C94B0035A
:100060000C94B0010C94B0010C94B0010C94B0014C
:100070000C94B0010C94B0010C94B0010C94B0013C
:100080000C94B0010C94B0010C94B0010C94B0012C
:100090000C94B0010C94B0010C94B0010C94B0011C
:1000A0000C94B0010C94B0010C94B0010C94B0010C
:1000B0000C94B0010C94B0010C94B0010C94B001FC
:1000C0000C94B0010C94B0010C94B0010C94B001EC
:1000D0000C94B0010C94B0010C94B0010C94B001DC
:1000E0000C94B0010C0511051605200599052A058B
:1000F00032053A0544054E05580567057105990511
:100100007B0585058F05B905BC05AF05B305F3056E
:10011000C005C405CA05CE05D205D805DC05E00535
:10012000F305E605EA05EE050C94B2010C94E10135
:100130000C94EA050C948F050C9458050C94E0057A
:100140000C9420050C94CA050C9467050C94B30517
:100150000C94F3050C943A050C948F060C94F5015D
:100160000C947B050C94CD010C9411050C942A057C
:100170000C94E6050C94B9050C9432050C94D80146
:100180000C94C0050C94AF050C94D8050C94BC05D8
:100190000C94C3010C94E4010C94C8010C948505E3
:1001A0000C94EE050C94DC050C94B7010C94DC0166
:1001B0000C9416050C9444050C94BF010C94C405D2
:1001C0000C944E050C94D2050C9499050C940C05D6
:1001D0000C94CE050C94BB010C9471050000090A27
:1001E00002080B0C0D0706030401000000000000CC
:1001F00000000000000000000000000000000000FF
:10020000000000000000000011100F0000000000BE
:1002100000000000000000000000000000000000DE
:10022000000001021020200808102040102040800B
:1002300002010201080402010102040810204080AA
:100240008040201008040201800402018040201038
:100250000804020108040201010204081020408081
:10026000010204081020408005050505070508085F
:100270000808020202020A0A080804040404010130
:100280000101010101010303030303030303040745
:1002900007070C0C0C0C0C0C0C0C020202020606DC
:1002A0000606060606060B0B0B0B0B0B0B0B0000D2
:1002B00020002300260029002C002F00320000011E
:1002C00000000301060109010000220025002800AA
:1002D0002B002E003100340002010000050108014E
:1002E0000B0100002100240027002A002D0030000F
:1002F000330001010000040107010A01F501112486
:100300001FBECFEFD1E2DEBFCDBF00E00CBF12E0D9
:10031000A0E0B2E0E2EDFEE000E00BBF02C007901B
:100320000D92A632B107D9F722E0A6E2B2E001C0F1
:100330001D92A933B207E1F711E0CFE7D1E000E069
:1003400006C021970109802FFE010E940E07CE37BB
:10035000D10780E00807A9F70E9473020C94670791
:100360000C940000862FBA010E94E5040895862FA0
:100370000E94BD040895862F0E94C0040895862F10
:100380000E9460060895862F642F0E94300608950B
:10039000862F642F0E94F40508950F931F93862FD4
:1003A000642FA90198010E9489061F910F91089559
:1003B000CB010E9451040895CB01BA010E942B0485
:1003C00008950E94060408950E94FA0308958091FA
:1003D0002602909127020E942F0208958091260202
:1003E000909127020E943D020895CF93DF9382E00F
:1003F00090E00E9480022BE032E0FC0131832083F8
:1004000090932B0280932A0282E090E00E94800267
:100410002BE132E0FC013183208390932902809309
:10042000280285E090E00E948002EC0140912802C1
:100430005091290260912A0270912B022DE00E94B6
:100440002802D0932702C0932602DF91CF9108950E
:10045000FC01718360835383428324830895FC01EC
:10046000A081B1816481ED91FC9111970190F0819F
:10047000E02D462FCD0119950895CF93DF93EC0120
:1004800088819981DC01ED91FC910280F381E02D5E
:1004900041E06C8119958A819B81DC01ED91FC9191
:1004A0000480F581E02D48EE53E060E070E019959E
:1004B00088819981DC01ED91FC910280F381E02D2E
:1004C00040E06C8119958A819B81DC01ED91FC9162
:1004D0000480F581E02D48EE53E060E070E019956E
:1004E000DF91CF9108950E945B040E94E701C0E074
:1004F000D0E00E94EE012097E1F30E940000F9CFC6
:100500000E9483020895CF93DF938230910510F407
:1005100082E090E0E0913702F091380220E030E094
:10052000C0E0D0E0309711F1408151814817590760
:10053000C0F04817590761F482819381209719F020
:100540009B838A832BC0909338028093370226C006
:100550002115310519F04217530718F49A01BE010D
:10056000DF01EF010280F381E02DDCCF21153105A1
:1005700009F1281B390B2430310590F412968D9126
:100580009C9113976115710521F0FB019383828380
:1005900004C09093380280933702FD01329644C024
:1005A000FD01E20FF31F81939193225031092D93A6
:1005B0003C933AC02091350230913602232B41F40E
:1005C00020910202309103023093360220933502CB
:1005D00020910002309101022115310541F42DB71F
:1005E0003EB74091040250910502241B350BE09167
:1005F0003502F0913602E217F307A0F42E1B3F0BF1
:100600002817390778F0AC014E5F5F4F2417350784
:1006100048F04E0F5F1F509336024093350281938E
:10062000919302C0E0E0F0E0CF01DF91CF91089517
:100630000F931F93CF93DF93009709F48CC0FC01B5
:1006400032971382128200913702109138020115FD
:10065000110581F420813181820F931F2091350291
:10066000309136022817390779F5F0933602E09376
:10067000350271C0D80140E050E0AE17BF0750F41A
:1006800012962D913C911397AD012115310509F179
:10069000D901F3CF9D01DA01338322836081718117
:1006A000860F971F8217930769F4EC01288139811F
:1006B000260F371F2E5F3F4F318320838A819B8116
:1006C00093838283452B29F4F0933802E093370219
:1006D00042C01396FC93EE931297ED014991599104
:1006E0009E01240F351FE217F30771F48081918179
:1006F000840F951F029611969C938E93828193810D
:1007000013969C938E931297E0E0F0E0D801129636
:100710008D919C911397009719F0F8018C01F6CFF9
:100720008D919C9198012E5F3F4F820F931F2091D6
:100730003502309136022817390769F4309729F4C9
:10074000109238021092370202C013821282109364
:10075000360200933502DF91CF911F910F910895DA
:100760001F920F920FB60F9211242F933F938F93E6
:100770009F93AF93BF9380912D0290912E02A091F1
:100780002F02B091300230912C0223E0230F2D373D
:1007900020F40196A11DB11D05C026E8230F029685
:1007A000A11DB11D20932C0280932D0290932E0247
:1007B000A0932F02B09330028091310290913202C7
:1007C000A0913302B09134020196A11DB11D809316
:1007D000310290933202A0933302B0933402BF915E
:1007E000AF919F918F913F912F910F900FBE0F90DE
:1007F0001F9018952FB7F89460912D0270912E02DA
:1008000080912F02909130022FBF08953FB7F89446
:100810008091310290913202A0913302B091340262
:1008200026B5A89B05C02F3F19F00196A11DB11D4B
:100830003FBFBA2FA92F982F8827820F911DA11D86
:10084000B11DBC01CD0142E0660F771F881F991FC3
:100850004A95D1F70895CF92DF92EF92FF92CF930E
:10086000DF936B017C010E940604EB01C114D104EB
:10087000E104F10479F00E9406046C1B7D0B683ED4
:100880007340A0F381E0C81AD108E108F108C8510B
:10089000DC4FECCFDF91CF91FF90EF90DF90CF90C6
:1008A0000895019739F0880F991F880F991F0297B3
:1008B0000197F1F70895789484B5826084BD84B57A
:1008C000816084BD85B5826085BD85B5816085BD4B
:1008D000EEE6F0E0808181608083E1E8F0E0108264
:1008E000808182608083808181608083E0E8F0E0A5
:1008F000808181608083E1EBF0E08081846080838F
:10090000E0EBF0E0808181608083E1E9F0E08081CC
:1009100082608083808181608083E0E9F0E0808173
:1009200081608083E1EAF0E0808182608083808161
:1009300081608083E0EAF0E0808181608083E1E291
:10094000F1E0808182608083808181608083E0E249
:10095000F1E0808181608083EAE7F0E0808184605B
:1009600080838081826080838081816080838081B8
:10097000806880831092C1000895809306020895D4
:10098000863308F0865390917B00282F2870977F3C
:10099000922B90937B0087702091060290E4299F10
:1009A00090011124822B80937C0080917A008064D6
:1009B00080937A0080917A0086FDFCCF8091780048
:1009C0002091790090E0922B08951F93CF93DF93AD
:1009D000182FEB0161E00E94F405209711F460E00C
:1009E00004C0CF3FD10529F461E0812F0E94300679
:1009F000A5C0E12FF0E0E452FE4FE4914E2F50E00D
:100A0000FA013197E131F10508F093C08827EE58DB
:100A1000FF4F8F4F0C940E0784B5806884BDC7BD0F
:100A20008DC084B5806284BDC8BD88C080918000BF
:100A3000806880938000D0938900C09388007EC036
:100A400080918000806280938000D0938B00C0935F
:100A50008A0074C08091B00080688093B000C09319
:100A6000B3006CC08091B00080628093B000C093EE
:100A7000B40064C080919000806880939000D0930F
:100A80009900C09398005AC0809190008062809332
:100A90009000D0939B00C0939A0050C0809190002A
:100AA000886080939000D0939D00C0939C0046C0C6
:100AB0008091A00080688093A0008091A0008F7B2F
:100AC0008093A000D093A900C093A80037C0809164
:100AD000A00080628093A000D093AB00C093AA00D6
:100AE0002DC08091A00088608093A000D093AD00BD
:100AF000C093AC0023C080912001806880932001C6
:100B0000D0932901C093280119C0809120018062EF
:100B100080932001D0932B01C0932A010FC08091B4
:100B20002001886080932001D0932D01C0932C0177
:100B300005C0C038D1050CF057CF51CFDF91CF9110
:100B40001F91089590E0FC013197E131F10508F023
:100B50004AC08827ED57FF4F8F4F0C940E078091A6
:100B600080008F7703C0809180008F7D809380000C
:100B7000089584B58F7702C084B58F7D84BD0895B4
:100B80008091B0008F7703C08091B0008F7D8093FB
:100B9000B0000895809190008F7707C080919000F9
:100BA0008F7D03C080919000877F8093900008958F
:100BB0008091A0008F7707C08091A0008F7D03C037
:100BC0008091A000877F8093A000089580912001EC
:100BD0008F7707C0809120018F7D03C08091200115
:100BE000877F809320010895CF93DF9390E0FC01ED
:100BF000EE5DFD4F2491FC01E859FD4F849188235F
:100C000061F190E0880F991FFC01EE51FD4FC591F5
:100C1000D491FC01E853FD4FA591B491611109C035
:100C20009FB7F8948881209582238883EC912E23A6
:100C30000BC0623061F49FB7F8943881822F8095A1
:100C400083238883EC912E2B2C939FBF06C08FB7F4
:100C5000F894E8812E2B28838FBFDF91CF910895E0
:100C60001F93CF93DF93282F30E0F901E452FE4F1A
:100C70008491F901EE5DFD4FD491F901E859FD4FE2
:100C8000C491CC23C9F0162F81110E94A205EC2F2C
:100C9000F0E0EE0FFF1FE853FD4FA591B4918FB721
:100CA000F894111105C09C91ED2FE095E92302C045
:100CB000EC91ED2BEC938FBFDF91CF911F910895B5
:100CC000CF93DF93282F30E0F901E452FE4F849157
:100CD000F901EE5DFD4FD491F901E859FD4FC49142
:100CE000CC2391F081110E94A205EC2FF0E0EE0FD1
:100CF000FF1FE255FD4FA591B491EC91ED2381E0EA
:100D000090E021F480E002C080E090E0DF91CF919C
:100D10000895A0E0B0E0EFE8F6E00C94270790E03B
:100D2000FC01EE5DFD4FA491FC01E859FD4F84915B
:100D3000662311F0BA2F01C0B0E089019A013F701B
:100D400090E0880F991F82559D4F480159014FEF40
:100D5000841A940AA40AB40AC12CD12C7601FC018D
:100D6000C591D49168816A236B131AC05FEFC51ACD
:100D7000D50AE50AF50AC814D904EA04FB0479F790
:100D800045C0460157016FEF861A960AA60AB60AB1
:100D9000C016D106E206F30609F438C075016401F5
:100DA000FC01C591D49168816A236B13EACFB90124
:100DB000A8014C195D096E097F096A017B0120E0D9
:100DC00030E0A901FC01C591D49168816A236B13BD
:100DD0000AC02C153D054E055F05C1F02F5F3F4F42
:100DE0004F4F5F4FEFCFA5E1B0E00E941607DC0147
:100DF000CB014096A11DB11DBC01CD0124E096950B
:100E00008795779567952A95D1F703C060E070E0E4
:100E1000CB01CDB7DEB7ECE00C944307EE0FFF1F1C
:100E2000881F8BBF0790F691E02D19940E945807F8
:100E3000A59F900DB49F900DA49F800D911D11242E
:100E400008952F923F924F925F926F927F928F926E
:100E50009F92AF92BF92CF92DF92EF92FF920F9349
:100E60001F93CF93DF93CDB7DEB7CA1BDB0B0FB653
:100E7000F894DEBF0FBECDBF19942A883988488800
:100E80005F846E847D848C849B84AA84B984C884A6
:100E9000DF80EE80FD800C811B81AA81B981CE0F9D
:100EA000D11D0FB6F894DEBF0FBECDBFED01089582
:100EB000A29FB001B39FC001A39F700D811D11249B
:100EC000911DB29F700D811D1124911D0895F894FC
:020ED000FFCF52
:100ED2000000390280000100000000C801C301BF08
:100EE20001BB01B701B20100000000E401E101DC35
:060EF20001D801CD010052
:00000001FF
